:100000000C9434000C9446000C9446000C9446006A
:100010000C9446000C9446000C9446000C94460048
:100020000C9446000C9446000C9446000C94460038
:100030000C9446000C9446000C9446000C94460028
:100040000C9446000C9446000C9446000C94460018
:100050000C9446000C9463000C9446000C944600EB
:100060000C9446000C94460011241FBECFEFD8E03C
:10007000DEBFCDBF21E0A0E0B1E001C01D92A03104
:10008000B207E1F70E94AC000C94E4000C9400006D
:100090008FEC80937A0080E090E0FC01EE0FFF1F70
:1000A000E050FF4F11821082019688309105A9F728
:1000B000089587709927FC01EE0FFF1FE050FF4F56
:1000C0008081918108951F920F920FB60F92112493
:1000D0002F933F938F939F93AF93BF93EF93FF9390
:1000E000ACE7B0E08C91877090E02091780030917F
:1000F0007900FC01EE0FFF1FE050FF4F318320839A
:100100000196877080648C93EAE7F0E080818064D8
:100110008083FF91EF91BF91AF919F918F913F911C
:100120002F910F900FBE0F901F9018959093C500C0
:100130008093C40088E18093C10008958091C0003D
:1001400087FFFCCF8091C60008959091C00095FF75
:10015000FCCF8093C600089514B817B81AB887E684
:1001600090E00E9496008FEC80937A0080E090E00F
:10017000FC01EE0FFF1FE050FF4F1182108201962D
:1001800088309105A9F77894C0E0D0E0FE01EE0F29
:10019000FF1FE050FF4F00811181C801880F892F98
:1001A000881F990B91959C2F990F990F990F892B67
:1001B0000E94A500802F80680E94A5000000219663
:0C01C000C830D10519F7E0CFF894FFCF4C
:00000001FF
